{
  "contractName": "College",
  "abi": [
    {
      "inputs": [],
      "payable": false,
      "stateMutability": "nonpayable",
      "type": "constructor"
    },
    {
      "anonymous": false,
      "inputs": [
        {
          "indexed": false,
          "internalType": "string",
          "name": "name",
          "type": "string"
        },
        {
          "indexed": false,
          "internalType": "uint256",
          "name": "class",
          "type": "uint256"
        },
        {
          "indexed": false,
          "internalType": "uint256",
          "name": "rollno",
          "type": "uint256"
        },
        {
          "indexed": false,
          "internalType": "uint256",
          "name": "Caste",
          "type": "uint256"
        },
        {
          "indexed": false,
          "internalType": "uint256",
          "name": "marks",
          "type": "uint256"
        },
        {
          "indexed": false,
          "internalType": "uint256",
          "name": "_aDdress",
          "type": "uint256"
        }
      ],
      "name": "School",
      "type": "event"
    },
    {
      "constant": true,
      "inputs": [
        {
          "internalType": "uint256",
          "name": "",
          "type": "uint256"
        }
      ],
      "name": "studentsAccts",
      "outputs": [
        {
          "internalType": "uint256",
          "name": "",
          "type": "uint256"
        }
      ],
      "payable": false,
      "stateMutability": "view",
      "type": "function"
    },
    {
      "constant": false,
      "inputs": [
        {
          "internalType": "uint256",
          "name": "_aDdress",
          "type": "uint256"
        },
        {
          "internalType": "string",
          "name": "nAme",
          "type": "string"
        },
        {
          "internalType": "uint256",
          "name": "cLass",
          "type": "uint256"
        },
        {
          "internalType": "uint256",
          "name": "rOllno",
          "type": "uint256"
        },
        {
          "internalType": "uint256",
          "name": "cAste",
          "type": "uint256"
        },
        {
          "internalType": "uint256",
          "name": "mArks",
          "type": "uint256"
        }
      ],
      "name": "setStudentinfo",
      "outputs": [
        {
          "internalType": "uint256",
          "name": "",
          "type": "uint256"
        }
      ],
      "payable": true,
      "stateMutability": "payable",
      "type": "function"
    },
    {
      "constant": true,
      "inputs": [
        {
          "internalType": "uint256",
          "name": "_address",
          "type": "uint256"
        }
      ],
      "name": "Name",
      "outputs": [
        {
          "internalType": "string",
          "name": "name",
          "type": "string"
        }
      ],
      "payable": false,
      "stateMutability": "view",
      "type": "function"
    },
    {
      "constant": true,
      "inputs": [
        {
          "internalType": "uint256",
          "name": "_address",
          "type": "uint256"
        }
      ],
      "name": "Class",
      "outputs": [
        {
          "internalType": "uint256",
          "name": "class",
          "type": "uint256"
        }
      ],
      "payable": false,
      "stateMutability": "view",
      "type": "function"
    },
    {
      "constant": true,
      "inputs": [
        {
          "internalType": "uint256",
          "name": "_address",
          "type": "uint256"
        }
      ],
      "name": "Rollno",
      "outputs": [
        {
          "internalType": "uint256",
          "name": "rollno",
          "type": "uint256"
        }
      ],
      "payable": false,
      "stateMutability": "view",
      "type": "function"
    },
    {
      "constant": true,
      "inputs": [
        {
          "internalType": "uint256",
          "name": "_address",
          "type": "uint256"
        }
      ],
      "name": "Castes",
      "outputs": [
        {
          "internalType": "uint256",
          "name": "Caste",
          "type": "uint256"
        }
      ],
      "payable": false,
      "stateMutability": "view",
      "type": "function"
    },
    {
      "constant": true,
      "inputs": [
        {
          "internalType": "uint256",
          "name": "_address",
          "type": "uint256"
        }
      ],
      "name": "Marks",
      "outputs": [
        {
          "internalType": "uint256",
          "name": "marks",
          "type": "uint256"
        }
      ],
      "payable": false,
      "stateMutability": "view",
      "type": "function"
    },
    {
      "constant": true,
      "inputs": [
        {
          "internalType": "uint256",
          "name": "_address",
          "type": "uint256"
        }
      ],
      "name": "Totall",
      "outputs": [
        {
          "internalType": "uint256",
          "name": "total",
          "type": "uint256"
        }
      ],
      "payable": false,
      "stateMutability": "view",
      "type": "function"
    },
    {
      "constant": true,
      "inputs": [],
      "name": "countStudent",
      "outputs": [
        {
          "internalType": "uint256",
          "name": "",
          "type": "uint256"
        }
      ],
      "payable": false,
      "stateMutability": "view",
      "type": "function"
    },
    {
      "constant": true,
      "inputs": [],
      "name": "getamount",
      "outputs": [
        {
          "internalType": "uint256",
          "name": "",
          "type": "uint256"
        }
      ],
      "payable": false,
      "stateMutability": "view",
      "type": "function"
    }
  ],
  "bytecode": "0x608060405234801561001057600080fd5b50336000806101000a81548173ffffffffffffffffffffffffffffffffffffffff021916908373ffffffffffffffffffffffffffffffffffffffff160217905550610aab806100606000396000f3fe6080604052600436106100915760003560e01c8063813d6b9911610059578063813d6b99146101d957806388a62732146102da5780638cdec38014610329578063ba7181da14610378578063bb1a80eb1461042c57610091565b806303627e70146100965780632512abfd146100c157806350be72d914610110578063534117e11461015f5780637a53f4201461018a575b600080fd5b3480156100a257600080fd5b506100ab61047b565b6040518082815260200191505060405180910390f35b3480156100cd57600080fd5b506100fa600480360360208110156100e457600080fd5b8101908080359060200190929190505050610488565b6040518082815260200191505060405180910390f35b34801561011c57600080fd5b506101496004803603602081101561013357600080fd5b81019080803590602001909291905050506104a8565b6040518082815260200191505060405180910390f35b34801561016b57600080fd5b506101746104c8565b6040518082815260200191505060405180910390f35b34801561019657600080fd5b506101c3600480360360208110156101ad57600080fd5b81019080803590602001909291905050506104d2565b6040518082815260200191505060405180910390f35b6102c4600480360360c08110156101ef57600080fd5b81019080803590602001909291908035906020019064010000000081111561021657600080fd5b82018360208201111561022857600080fd5b8035906020019184600183028401116401000000008311171561024a57600080fd5b91908080601f016020809104026020016040519081016040528093929190818152602001838380828437600081840152601f19601f820116905080830192505050505050509192919290803590602001909291908035906020019092919080359060200190929190803590602001909291905050506104f2565b6040518082815260200191505060405180910390f35b3480156102e657600080fd5b50610313600480360360208110156102fd57600080fd5b8101908080359060200190929190505050610895565b6040518082815260200191505060405180910390f35b34801561033557600080fd5b506103626004803603602081101561034c57600080fd5b81019080803590602001909291905050506108b6565b6040518082815260200191505060405180910390f35b34801561038457600080fd5b506103b16004803603602081101561039b57600080fd5b81019080803590602001909291905050506108d6565b6040518080602001828103825283818151815260200191508051906020019080838360005b838110156103f15780820151818401526020810190506103d6565b50505050905090810190601f16801561041e5780820380516001836020036101000a031916815260200191505b509250505060405180910390f35b34801561043857600080fd5b506104656004803603602081101561044f57600080fd5b810190808035906020019092919050505061098e565b6040518082815260200191505060405180910390f35b6000600880549050905090565b600060076000838152602001908152602001600020600401549050919050565b600060076000838152602001908152602001600020600501549050919050565b6000600554905090565b600060076000838152602001908152602001600020600201549050919050565b60008060009054906101000a900473ffffffffffffffffffffffffffffffffffffffff1673ffffffffffffffffffffffffffffffffffffffff163373ffffffffffffffffffffffffffffffffffffffff161461054d57600080fd5b60006007600089815260200190815260200160002090506007600089815260200190815260200160002060070160009054906101000a900460ff16156105de576040517f08c379a0000000000000000000000000000000000000000000000000000000008152600401808060200182810382526023815260200180610a546023913960400191505060405180910390fd5b868160000190805190602001906105f69291906109ae565b508581600101819055508481600201819055508381600301819055508281600401819055506008889080600181540180825580915050906001820390600052602060002001600090919290919091505550600086905060006001828161065857fe5b04905060088110156106715760006005819055506106cd565b60088114156106885761c3506004819055506106cc565b600981141561069f5761ea606004819055506106cb565b600a8114156106b757620111706004819055506106ca565b600a8111156106c95760006004819055505b5b5b5b5b60008690506000600182816106de57fe5b04905060018114156106f8576103e8600181905550610753565b600281141561070f576107d0600181905550610752565b600381141561072657610bb8600181905550610751565b600481141561073d57610fa0600181905550610750565b600481111561074f5760006001819055505b5b5b5b5b86600681905550600060646006540290506000610258828161077157fe5b049050604681116107a35760006002819055506001546002540160038190555060035460045403600581905550610863565b604b81116107d357612d506002819055506001546002540160038190555060035460045403600581905550610862565b60508111610803576135846002819055506001546002540160038190555060035460045403600581905550610861565b605a81116108335761396c6002819055506001546002540160038190555060035460045403600581905550610860565b605f811161085f57613d5460028190555060015460025401600381905550600354600454036005819055505b5b5b5b5b600a851115610876576004546005819055505b6005548760050181905550849750505050505050509695505050505050565b600881815481106108a257fe5b906000526020600020016000915090505481565b600060076000838152602001908152602001600020600101549050919050565b6060600760008381526020019081526020016000206000018054600181600116156101000203166002900480601f0160208091040260200160405190810160405280929190818152602001828054600181600116156101000203166002900480156109825780601f1061095757610100808354040283529160200191610982565b820191906000526020600020905b81548152906001019060200180831161096557829003601f168201915b50505050509050919050565b600060076000838152602001908152602001600020600301549050919050565b828054600181600116156101000203166002900490600052602060002090601f016020900481019282601f106109ef57805160ff1916838001178555610a1d565b82800160010185558215610a1d579182015b82811115610a1c578251825591602001919060010190610a01565b5b509050610a2a9190610a2e565b5090565b610a5091905b80821115610a4c576000816000905550600101610a34565b5090565b9056fe417373657420576974682054686973205555494420416c726561647920457869737473a265627a7a72315820d2980bf2ac70bb08045fb37e4a36153dc8138c73e208fe8080561bfdf50a24c564736f6c63430005100032",
  "source": "pragma solidity ^0.5.4;\n  \ncontract College{\n    address private minter;\n     uint private castescholarship;\n     uint private merit;\n    uint private totalfee;\n     uint private totalfees;\n     uint private fInalamount;\n     uint private markss;\n   \n     struct Student {\n    string name;\n    uint class;\n    uint rollno;  \n    uint Caste;\n    uint marks;\n    uint total;\n    uint _aDdress;\n    bool initialized; \n}\n\n\n\nevent School(string  name, uint class, uint rollno, uint Caste, uint marks, uint _aDdress);\nmapping (uint => Student) students;\nuint [] public studentsAccts;\n\n\nconstructor() public {\n        // Uses the special msg global variable to store the\n        // address of the contract creator\n        minter = msg.sender;\n    }\n\n    function setStudentinfo(uint _aDdress,  string memory nAme, uint cLass, uint rOllno,  uint cAste, uint mArks) public payable returns(uint) {\n   \n   //Task 1 : call the owner of the contractor and we are only giving whole access to the address who deplyed the contract\n    \n    require(msg.sender == minter); // minter missed(address)\n    Student storage student = students[_aDdress];\n    require(!students[_aDdress].initialized, \"Asset With This UUID Already Exists\");\n    \n     student.name = nAme;\n     student.class = cLass;\n     student.rollno = rOllno;\n     student.Caste = cAste;\n     student.marks = mArks;\n    \n     \n\n     studentsAccts.push(_aDdress);\n    {\n     \n    uint xy = cLass;\n      uint CLASS = xy/1;\n       \n      //Task 2: Create a if else condition \n      //if CLASS is equal to 10 then totalfees has totalfees has be 70000\n      //else if CLASS is greator than 10 totalfees has to be 0\n      \n      if (CLASS < 8) {         \n        fInalamount = 0;\n        }\n        else if (CLASS == 8) {\n        totalfees = 50000;\n        }\n       else if (CLASS == 9) {\n        totalfees = 60000;\n        }\n        else if (CLASS == 10) {// 10 value missed\n        totalfees = 70000;\n        }\n         else if (CLASS> 10) {\n         totalfees = 0; //totalfees variable missed\n        }\n       uint d = cAste;\n      uint CASTE = d/1;\n      \n      \n      //Task 3 If CASTE is equal to 1 then castescholarship has to be 1000\n      //If CASTE is equal to 1 then castescholarship has to be 1000\n      //If CASTE is equal to 2 then castescholarship has to be 2000\n      //If CASTE is equal to 3 then castescholarship has to be 3000\n      //If CASTE is equal to 4 then castescholarship has to be 4000\n      \n      \n         if (CASTE == 1) {\n        castescholarship =  1000; //1000 missed\n        }\n       else if (CASTE == 2) {\n        castescholarship = 2000; //castescholarship variable missed\n        }\n        \n        else if (CASTE == 3) { //3 value missed\n        castescholarship = 3000;\n        }\n        \n       \n        else if (CASTE == 4) {// CASTE is missed\n         castescholarship = 4000;\n        }\n        else if (CASTE > 4) {\n           castescholarship = 0;\n        }\n        \n     \n       markss = mArks;\n     uint c = markss*100;\n      uint integ = c/600;\n     \n     \n\n      if (integ <= 70) {\n            merit = 0;\n            totalfee = merit+castescholarship;\n            fInalamount = totalfees-totalfee;\n        }\n       else if (integ <= 75 ) { \n           merit = 11600;\n           totalfee = merit+castescholarship;\n           fInalamount = totalfees-totalfee;\n       }\n        else if (integ <= 80) {\n            merit = 13700;\n            totalfee = merit+castescholarship;\n            fInalamount = totalfees-totalfee;\n        }\n       \n        else if (integ <= 90) {\n            merit = 14700;\n           totalfee = merit+castescholarship;\n           fInalamount = totalfees-totalfee;\n        }\n        else if (integ <= 95) {\n            merit = 15700;\n            totalfee = merit+castescholarship;\n            fInalamount = totalfees-totalfee;\n        }\n        \n        \n     \n {\n        if (CLASS >  10) {\n            fInalamount = totalfees;\n        }\n }\n     student.total = fInalamount;\n        return(CLASS);\n    }\n\n  \n     }\n     \nfunction Name(uint _address) view public returns (string memory name) {\n    return (students[_address].name);\n}\nfunction Class(uint _address) view public returns (uint class) {\n    return ( students[_address].class);\n}\nfunction Rollno(uint _address) view public returns (uint rollno) {\n    return ( students[_address].rollno);\n}\nfunction Castes(uint _address) view public returns ( uint Caste) {\n    return (students[_address].Caste);\n}\nfunction Marks(uint _address) view public returns ( uint marks) {\n    return (students[_address].marks);\n}\n\nfunction Totall(uint _address) view public returns ( uint total) {\n    return (students[_address].total);\n}\n  function countStudent() view public returns (uint) {\n      return studentsAccts.length;\n      \n      \n  }\n  \n function getamount() view public returns (uint) {\n      return fInalamount;\n      \n      \n  }\n  \n}\n  \n",
  "sourcePath": "/home/harikrishna/Desktop/Blockchain/Student Capstone Project-20200907T091740Z-001/Student Capstone Project/contracts/College.sol",
  "compiler": {
    "name": "solc",
    "version": "0.5.16+commit.9c3226ce.Emscripten.clang"
  },
  "schemaVersion": "3.2.4",
  "updatedAt": "2020-09-09T05:07:41.654Z",
  "networkType": "ethereum",
  "devdoc": {
    "methods": {}
  },
  "userdoc": {
    "methods": {}
  }
}